{
  "_format": "hh-sol-artifact-1",
  "contractName": "Battle",
  "sourceName": "contracts/Battle.sol",
  "abi": [
    {
      "inputs": [
        {
          "internalType": "address",
          "name": "_pokemonContract",
          "type": "address"
        }
      ],
      "stateMutability": "nonpayable",
      "type": "constructor"
    },
    {
      "anonymous": false,
      "inputs": [
        {
          "indexed": true,
          "internalType": "address",
          "name": "winner",
          "type": "address"
        },
        {
          "indexed": true,
          "internalType": "address",
          "name": "loser",
          "type": "address"
        },
        {
          "indexed": false,
          "internalType": "uint256",
          "name": "winnerPokemonId",
          "type": "uint256"
        },
        {
          "indexed": false,
          "internalType": "uint256",
          "name": "loserPokemonId",
          "type": "uint256"
        }
      ],
      "name": "BattleEnded",
      "type": "event"
    },
    {
      "anonymous": false,
      "inputs": [
        {
          "indexed": true,
          "internalType": "address",
          "name": "player1",
          "type": "address"
        },
        {
          "indexed": true,
          "internalType": "address",
          "name": "player2",
          "type": "address"
        },
        {
          "indexed": false,
          "internalType": "uint256",
          "name": "pokemon1Id",
          "type": "uint256"
        },
        {
          "indexed": false,
          "internalType": "uint256",
          "name": "pokemon2Id",
          "type": "uint256"
        }
      ],
      "name": "BattleStarted",
      "type": "event"
    },
    {
      "anonymous": false,
      "inputs": [
        {
          "indexed": true,
          "internalType": "address",
          "name": "previousOwner",
          "type": "address"
        },
        {
          "indexed": true,
          "internalType": "address",
          "name": "newOwner",
          "type": "address"
        }
      ],
      "name": "OwnershipTransferred",
      "type": "event"
    },
    {
      "inputs": [],
      "name": "EXPERIENCE_PER_WIN",
      "outputs": [
        {
          "internalType": "uint256",
          "name": "",
          "type": "uint256"
        }
      ],
      "stateMutability": "view",
      "type": "function"
    },
    {
      "inputs": [],
      "name": "REST_TIME",
      "outputs": [
        {
          "internalType": "uint256",
          "name": "",
          "type": "uint256"
        }
      ],
      "stateMutability": "view",
      "type": "function"
    },
    {
      "inputs": [],
      "name": "STAMINA_COST",
      "outputs": [
        {
          "internalType": "uint256",
          "name": "",
          "type": "uint256"
        }
      ],
      "stateMutability": "view",
      "type": "function"
    },
    {
      "inputs": [
        {
          "internalType": "uint256",
          "name": "pokemonId1",
          "type": "uint256"
        },
        {
          "internalType": "uint256",
          "name": "pokemonId2",
          "type": "uint256"
        }
      ],
      "name": "battle",
      "outputs": [],
      "stateMutability": "nonpayable",
      "type": "function"
    },
    {
      "inputs": [
        {
          "internalType": "uint256",
          "name": "",
          "type": "uint256"
        }
      ],
      "name": "battleHistory",
      "outputs": [
        {
          "internalType": "address",
          "name": "winner",
          "type": "address"
        },
        {
          "internalType": "address",
          "name": "loser",
          "type": "address"
        },
        {
          "internalType": "uint256",
          "name": "winnerPokemonId",
          "type": "uint256"
        },
        {
          "internalType": "uint256",
          "name": "loserPokemonId",
          "type": "uint256"
        },
        {
          "internalType": "uint256",
          "name": "timestamp",
          "type": "uint256"
        }
      ],
      "stateMutability": "view",
      "type": "function"
    },
    {
      "inputs": [],
      "name": "getBattleHistory",
      "outputs": [
        {
          "components": [
            {
              "internalType": "address",
              "name": "winner",
              "type": "address"
            },
            {
              "internalType": "address",
              "name": "loser",
              "type": "address"
            },
            {
              "internalType": "uint256",
              "name": "winnerPokemonId",
              "type": "uint256"
            },
            {
              "internalType": "uint256",
              "name": "loserPokemonId",
              "type": "uint256"
            },
            {
              "internalType": "uint256",
              "name": "timestamp",
              "type": "uint256"
            }
          ],
          "internalType": "struct Battle.BattleRecord[]",
          "name": "",
          "type": "tuple[]"
        }
      ],
      "stateMutability": "view",
      "type": "function"
    },
    {
      "inputs": [
        {
          "internalType": "uint256",
          "name": "limit",
          "type": "uint256"
        }
      ],
      "name": "getTopBattlers",
      "outputs": [
        {
          "internalType": "address[]",
          "name": "",
          "type": "address[]"
        },
        {
          "internalType": "uint256[]",
          "name": "",
          "type": "uint256[]"
        }
      ],
      "stateMutability": "view",
      "type": "function"
    },
    {
      "inputs": [
        {
          "internalType": "address",
          "name": "user",
          "type": "address"
        }
      ],
      "name": "getUserStats",
      "outputs": [
        {
          "components": [
            {
              "internalType": "uint256",
              "name": "wins",
              "type": "uint256"
            },
            {
              "internalType": "uint256",
              "name": "losses",
              "type": "uint256"
            },
            {
              "internalType": "uint256",
              "name": "totalBattles",
              "type": "uint256"
            }
          ],
          "internalType": "struct Battle.UserStats",
          "name": "",
          "type": "tuple"
        }
      ],
      "stateMutability": "view",
      "type": "function"
    },
    {
      "inputs": [],
      "name": "owner",
      "outputs": [
        {
          "internalType": "address",
          "name": "",
          "type": "address"
        }
      ],
      "stateMutability": "view",
      "type": "function"
    },
    {
      "inputs": [],
      "name": "pokemonContract",
      "outputs": [
        {
          "internalType": "contract Pokemon",
          "name": "",
          "type": "address"
        }
      ],
      "stateMutability": "view",
      "type": "function"
    },
    {
      "inputs": [
        {
          "internalType": "uint256",
          "name": "",
          "type": "uint256"
        }
      ],
      "name": "pokemonInBattle",
      "outputs": [
        {
          "internalType": "bool",
          "name": "",
          "type": "bool"
        }
      ],
      "stateMutability": "view",
      "type": "function"
    },
    {
      "inputs": [],
      "name": "renounceOwnership",
      "outputs": [],
      "stateMutability": "nonpayable",
      "type": "function"
    },
    {
      "inputs": [
        {
          "internalType": "address",
          "name": "newOwner",
          "type": "address"
        }
      ],
      "name": "transferOwnership",
      "outputs": [],
      "stateMutability": "nonpayable",
      "type": "function"
    },
    {
      "inputs": [
        {
          "internalType": "address",
          "name": "",
          "type": "address"
        }
      ],
      "name": "userStats",
      "outputs": [
        {
          "internalType": "uint256",
          "name": "wins",
          "type": "uint256"
        },
        {
          "internalType": "uint256",
          "name": "losses",
          "type": "uint256"
        },
        {
          "internalType": "uint256",
          "name": "totalBattles",
          "type": "uint256"
        }
      ],
      "stateMutability": "view",
      "type": "function"
    }
  ],
  "bytecode": "0x6080346100a757601f61138e38819003918201601f19168301916001600160401b038311848410176100ac578084926020946040528339810103126100a757516001600160a01b0390818116908190036100a75760005460018060a01b0319903382821617600055604051933391167f8be0079c531659141344cd1fd0a4f28419497f9722a3daafe3b4186f6b6457e0600080a360015416176001556112cb90816100c38239f35b600080fd5b634e487b7160e01b600052604160045260246000fdfe608080604052600436101561001357600080fd5b600090813560e01c9081632a0c5221146105de575080632b6b7c3c146105c257806333f5f630146104905780633b7a3253146104735780634ccc616d146104085780634e43603a1461037d5780634ff4af7914610361578063553866ae146103325780636d50905f14610309578063715018a6146102af5780638a65d8741461025a5780638da5cb5b14610233578063ef89bc7c1461018e5763f2fde38b146100bb57600080fd5b3461018b57602036600319011261018b576004356001600160a01b0381811691829003610187576100ea610df5565b811561013357600054826bffffffffffffffffffffffff60a01b821617600055167f8be0079c531659141344cd1fd0a4f28419497f9722a3daafe3b4186f6b6457e0600080a380f35b60405162461bcd60e51b815260206004820152602660248201527f4f776e61626c653a206e6577206f776e657220697320746865207a65726f206160448201526564647265737360d01b6064820152608490fd5b8280fd5b80fd5b503461018b5760208060031936011261022f576101ac6004356110a3565b9092604051938493604085016040865282518091528160608701930190845b81811061020f57505050848203818601528080855193848152019401925b8281106101f857505050500390f35b8351855286955093810193928101926001016101e9565b82516001600160a01b0316855288975093830193918301916001016101cb565b5080fd5b503461018b578060031936011261018b57546040516001600160a01b039091168152602090f35b503461018b57602036600319011261018b576004356001600160a01b0381169081900361022f578160409160609352600260205220805490600260018201549101549060405192835260208301526040820152f35b503461018b578060031936011261018b576102c8610df5565b600080546001600160a01b0319811682556001600160a01b03167f8be0079c531659141344cd1fd0a4f28419497f9722a3daafe3b4186f6b6457e08280a380f35b503461018b578060031936011261018b576001546040516001600160a01b039091168152602090f35b503461018b57602036600319011261018b5760ff60406020926004358152600384522054166040519015158152f35b503461018b578060031936011261018b57602060405160648152f35b503461018b57602036600319011261018b576004356001600160a01b0381169081900361022f57816040916060938380516103b781610e93565b828152826020820152015281526002602052206040516103d681610e93565b815491828252604060026001830154926020850193845201549201918252604051928352516020830152516040820152f35b503461018b57602036600319011261018b576004359060045482101561018b5760a061043383610da4565b50600180831b0390818154169160018201541690600281015460046003830154920154926040519485526020850152604084015260608301526080820152f35b503461018b578060031936011261018b576020604051610e108152f35b503461018b578060031936011261018b576004546104ad81611045565b906104bb6040519283610ecb565b8082526004835260209182810191847f8a35acfbc15ff81a39ae7d344fd709f28e8600b4aa8c65c6b64bfe7fe36bd19b845b83831061056557505050506040519280840191818552518092526040840192945b82811061051b5784840385f35b855180516001600160a01b0390811686528184015116858401526040808201519086015260608082015190860152608090810151908501529481019460a09093019260010161050e565b60058760019260409a9997989a5161057c81610e77565b848060a01b0380875416825285870154168382015260028601546040820152600386015460608201526004860154608082015281520192019201919096949395966104ed565b503461018b578060031936011261018b57602060405160148152f35b90503461022f57604036600319011261022f5760243560043514610d62575060015460405163f0b305db60e01b80825260048035908301526001600160a01b039092169161016091908282602481875afa918215610cdf578592610d43575b5060405190815260243560048201528281602481875afa928315610cdf578593610d14575b50506040516331a9108f60e11b80825260048035908301529390602081602481855afa908115610d09578691610cea575b506001600160a01b03163314908115610c86575b5015610c41576004358452600360205260ff604085205416610bfc576024358452600360205260ff604085205416610bb7576101008082015115610b725782015115610b2d5761072661072c916004358652600360205260408620600160ff19825416179055602435865260408620600160ff19825416179055610ff7565b91610ff7565b1015610a8d5760018060a01b03600154166040518281526004356004820152602081602481855afa8015610a82576020918591610a65575b50926024604051809481938252823560048301525afa908115610a5a578391610a2b575b50600435906024355b6001600160a01b038416855260026020526040852080546107b190610fb2565b90556001600160a01b038216855260026020526040852060010180546107d690610fb2565b90556001600160a01b038416855260026020819052604086200180546107fb90610fb2565b90556001600160a01b0382168552600260208190526040862001805461082090610fb2565b90556001546001600160a01b0316803b15610a2757604051868160448183630ba4818b60e31b968783528a6004840152606460248401525af18015610a1c57610a09575b5060015486916001600160a01b0390911690813b156101875782916044839260405194859384928352886004840152603260248401525af180156109fe576109e6575b50506040516108b581610e77565b6001600160a01b038581168252831660208201526040810184905260608101829052426080820152600454680100000000000000008110156109d2578060016109019201600455610da4565b9190916109be57805182546001600160a01b03199081166001600160a01b03928316178455602080840151600186018054909316908416179091556040808401516002860155606084015160038087019190915560809094015160049586015593358952918252828820805460ff199081169091556024358952838920805490911690558251958652908501929092529181169316917f405b87e11b432206064b961ea8ed6c8e8744eb4b57852436f108ce8a6f8e9ab69190a380f35b634e487b7160e01b87526004879052602487fd5b634e487b7160e01b87526041600452602487fd5b6109ef90610e4d565b6109fa5784386108a7565b8480fd5b6040513d84823e3d90fd5b610a1590969196610e4d565b9438610864565b6040513d89823e3d90fd5b8580fd5b610a4d915060203d602011610a53575b610a458183610ecb565b810190610f93565b38610788565b503d610a3b565b6040513d85823e3d90fd5b610a7c9150823d8411610a5357610a458183610ecb565b38610764565b6040513d86823e3d90fd5b60018060a01b03600154166040518281526024356004820152602081602481855afa8015610a82576020918591610b10575b5092602460405180948193825260043560048301525afa908115610a5a578391610af1575b5060243590600435610791565b610b0a915060203d602011610a5357610a458183610ecb565b38610ae4565b610b279150823d8411610a5357610a458183610ecb565b38610abf565b60405162461bcd60e51b815260206004820152601860248201527f506f6b656d6f6e203220686173206e6f207374616d696e6100000000000000006044820152606490fd5b60405162461bcd60e51b815260206004820152601860248201527f506f6b656d6f6e203120686173206e6f207374616d696e6100000000000000006044820152606490fd5b60405162461bcd60e51b815260206004820152601e60248201527f506f6b656d6f6e203220697320616c726561647920696e20626174746c6500006044820152606490fd5b60405162461bcd60e51b815260206004820152601e60248201527f506f6b656d6f6e203120697320616c726561647920696e20626174746c6500006044820152606490fd5b60405162461bcd60e51b815260206004820152601d60248201527f4d757374206f776e206174206c65617374206f6e6520506f6b656d6f6e0000006044820152606490fd5b6024915060209060405192838092888252823560048301525afa908115610cdf578591610cc0575b506001600160a01b03163314386106a7565b610cd9915060203d602011610a5357610a458183610ecb565b38610cae565b6040513d87823e3d90fd5b610d03915060203d602011610a5357610a458183610ecb565b38610693565b6040513d88823e3d90fd5b610d34929350803d10610d3c575b610d2c8183610ecb565b810190610eed565b903880610662565b503d610d22565b610d5b919250833d8511610d3c57610d2c8183610ecb565b903861063d565b62461bcd60e51b815260206004820152601e60248201527f43616e6e6f7420626174746c65207468652073616d6520506f6b656d6f6e00006044820152606490fd5b600454811015610ddf576005906004600052027f8a35acfbc15ff81a39ae7d344fd709f28e8600b4aa8c65c6b64bfe7fe36bd19b0190600090565b634e487b7160e01b600052603260045260246000fd5b6000546001600160a01b03163303610e0957565b606460405162461bcd60e51b815260206004820152602060248201527f4f776e61626c653a2063616c6c6572206973206e6f7420746865206f776e65726044820152fd5b67ffffffffffffffff8111610e6157604052565b634e487b7160e01b600052604160045260246000fd5b60a0810190811067ffffffffffffffff821117610e6157604052565b6060810190811067ffffffffffffffff821117610e6157604052565b6020810190811067ffffffffffffffff821117610e6157604052565b90601f8019910116810190811067ffffffffffffffff821117610e6157604052565b80916101609283910312610f8e5760405191820182811067ffffffffffffffff821117610e6157604052805182526020810151602083015260408101516040830152606081015160608301526080810151608083015260a081015160a083015260c081015160c083015260e081015160e0830152610100808201519083015261012080820151908115158203610f8e57830152610140809101519082015290565b600080fd5b90816020910312610f8e57516001600160a01b0381168103610f8e5790565b6000198114610fc15760010190565b634e487b7160e01b600052601160045260246000fd5b91908201809211610fc157565b81810292918115918404141715610fc157565b6110429060c861103b61010061103261102761101c60a087015160c088015190610fd7565b60e087015190610fd7565b602086015190610fe4565b93015183610fe4565b0490610fd7565b90565b67ffffffffffffffff8111610e615760051b60200190565b9061106782611045565b6110746040519182610ecb565b8281528092611085601f1991611045565b0190602036910137565b8051821015610ddf5760209160051b010190565b90600454918215611268576000906110ba8461105d565b93825b8181106111e6575050808210156111e15750805b6110da8161105d565b916110e48261105d565b9460005b8381106110f757505050509190565b600080815b8581106111365750908291611114611131948961108f565b6001600160a01b03909116905261112b828a61108f565b52610fb2565b6110e8565b6001600160a01b0380611149838861108f565b511690816000526002602081815260409287846000205411611179575b505050505061117490610fb2565b6110fc565b60009081868f5b8c83106111b1575b5050505015611198575b80611166565b6000848152919052205493509150611174388080611192565b6111bc83859261108f565b5116146111d3576111cc90610fb2565b868f611180565b50505060013880868f611188565b6110d1565b6111ef81610da4565b50546001600160a01b0390811690600090815b87811061123b575b505015611221575b5061121c90610fb2565b6110bd565b846112349161112b61121c94978a61108f565b9390611212565b8382611247838d61108f565b51161461125c5761125790610fb2565b611202565b5050506001388061120a565b50604051915061127782610eaf565b600082526040519161128883610eaf565b600083526000368137919056fea264697066735822122043e91752389fc8ce83bbf1f0aa83dff8022194a54dbe03509511dfdfbd40476b64736f6c63430008130033",
  "linkReferences": {},
  "deployedLinkReferences": {}
}