{
  "_format": "hh-sol-artifact-1",
  "contractName": "Marketplace",
  "sourceName": "contracts/Marketplace.sol",
  "abi": [
    {
      "inputs": [
        {
          "internalType": "address",
          "name": "_pokemonContract",
          "type": "address"
        },
        {
          "internalType": "address",
          "name": "_tokenContract",
          "type": "address"
        }
      ],
      "stateMutability": "nonpayable",
      "type": "constructor"
    },
    {
      "anonymous": false,
      "inputs": [
        {
          "indexed": true,
          "internalType": "address",
          "name": "previousOwner",
          "type": "address"
        },
        {
          "indexed": true,
          "internalType": "address",
          "name": "newOwner",
          "type": "address"
        }
      ],
      "name": "OwnershipTransferred",
      "type": "event"
    },
    {
      "anonymous": false,
      "inputs": [
        {
          "indexed": true,
          "internalType": "uint256",
          "name": "listingId",
          "type": "uint256"
        },
        {
          "indexed": true,
          "internalType": "address",
          "name": "seller",
          "type": "address"
        },
        {
          "indexed": false,
          "internalType": "uint256",
          "name": "tokenId",
          "type": "uint256"
        },
        {
          "indexed": false,
          "internalType": "uint256",
          "name": "price",
          "type": "uint256"
        }
      ],
      "name": "PokemonListed",
      "type": "event"
    },
    {
      "anonymous": false,
      "inputs": [
        {
          "indexed": true,
          "internalType": "uint256",
          "name": "listingId",
          "type": "uint256"
        },
        {
          "indexed": true,
          "internalType": "address",
          "name": "buyer",
          "type": "address"
        },
        {
          "indexed": true,
          "internalType": "address",
          "name": "seller",
          "type": "address"
        },
        {
          "indexed": false,
          "internalType": "uint256",
          "name": "tokenId",
          "type": "uint256"
        },
        {
          "indexed": false,
          "internalType": "uint256",
          "name": "price",
          "type": "uint256"
        }
      ],
      "name": "PokemonPurchased",
      "type": "event"
    },
    {
      "anonymous": false,
      "inputs": [
        {
          "indexed": true,
          "internalType": "uint256",
          "name": "listingId",
          "type": "uint256"
        }
      ],
      "name": "PokemonUnlisted",
      "type": "event"
    },
    {
      "inputs": [],
      "name": "getActiveListings",
      "outputs": [
        {
          "components": [
            {
              "internalType": "address",
              "name": "seller",
              "type": "address"
            },
            {
              "internalType": "uint256",
              "name": "tokenId",
              "type": "uint256"
            },
            {
              "internalType": "uint256",
              "name": "price",
              "type": "uint256"
            },
            {
              "internalType": "bool",
              "name": "isActive",
              "type": "bool"
            }
          ],
          "internalType": "struct Marketplace.Listing[]",
          "name": "",
          "type": "tuple[]"
        }
      ],
      "stateMutability": "view",
      "type": "function"
    },
    {
      "inputs": [],
      "name": "getActiveListingsWithIds",
      "outputs": [
        {
          "internalType": "uint256[]",
          "name": "",
          "type": "uint256[]"
        },
        {
          "components": [
            {
              "internalType": "address",
              "name": "seller",
              "type": "address"
            },
            {
              "internalType": "uint256",
              "name": "tokenId",
              "type": "uint256"
            },
            {
              "internalType": "uint256",
              "name": "price",
              "type": "uint256"
            },
            {
              "internalType": "bool",
              "name": "isActive",
              "type": "bool"
            }
          ],
          "internalType": "struct Marketplace.Listing[]",
          "name": "",
          "type": "tuple[]"
        }
      ],
      "stateMutability": "view",
      "type": "function"
    },
    {
      "inputs": [
        {
          "internalType": "uint256",
          "name": "tokenId",
          "type": "uint256"
        },
        {
          "internalType": "uint256",
          "name": "price",
          "type": "uint256"
        }
      ],
      "name": "listPokemon",
      "outputs": [],
      "stateMutability": "nonpayable",
      "type": "function"
    },
    {
      "inputs": [],
      "name": "listingCount",
      "outputs": [
        {
          "internalType": "uint256",
          "name": "",
          "type": "uint256"
        }
      ],
      "stateMutability": "view",
      "type": "function"
    },
    {
      "inputs": [
        {
          "internalType": "uint256",
          "name": "",
          "type": "uint256"
        }
      ],
      "name": "listings",
      "outputs": [
        {
          "internalType": "address",
          "name": "seller",
          "type": "address"
        },
        {
          "internalType": "uint256",
          "name": "tokenId",
          "type": "uint256"
        },
        {
          "internalType": "uint256",
          "name": "price",
          "type": "uint256"
        },
        {
          "internalType": "bool",
          "name": "isActive",
          "type": "bool"
        }
      ],
      "stateMutability": "view",
      "type": "function"
    },
    {
      "inputs": [
        {
          "internalType": "address",
          "name": "operator",
          "type": "address"
        },
        {
          "internalType": "address",
          "name": "from",
          "type": "address"
        },
        {
          "internalType": "uint256",
          "name": "tokenId",
          "type": "uint256"
        },
        {
          "internalType": "bytes",
          "name": "data",
          "type": "bytes"
        }
      ],
      "name": "onERC721Received",
      "outputs": [
        {
          "internalType": "bytes4",
          "name": "",
          "type": "bytes4"
        }
      ],
      "stateMutability": "pure",
      "type": "function"
    },
    {
      "inputs": [],
      "name": "owner",
      "outputs": [
        {
          "internalType": "address",
          "name": "",
          "type": "address"
        }
      ],
      "stateMutability": "view",
      "type": "function"
    },
    {
      "inputs": [],
      "name": "pokemonContract",
      "outputs": [
        {
          "internalType": "contract Pokemon",
          "name": "",
          "type": "address"
        }
      ],
      "stateMutability": "view",
      "type": "function"
    },
    {
      "inputs": [
        {
          "internalType": "uint256",
          "name": "listingId",
          "type": "uint256"
        }
      ],
      "name": "purchasePokemon",
      "outputs": [],
      "stateMutability": "nonpayable",
      "type": "function"
    },
    {
      "inputs": [],
      "name": "renounceOwnership",
      "outputs": [],
      "stateMutability": "nonpayable",
      "type": "function"
    },
    {
      "inputs": [],
      "name": "tokenContract",
      "outputs": [
        {
          "internalType": "contract Token",
          "name": "",
          "type": "address"
        }
      ],
      "stateMutability": "view",
      "type": "function"
    },
    {
      "inputs": [
        {
          "internalType": "address",
          "name": "newOwner",
          "type": "address"
        }
      ],
      "name": "transferOwnership",
      "outputs": [],
      "stateMutability": "nonpayable",
      "type": "function"
    },
    {
      "inputs": [
        {
          "internalType": "uint256",
          "name": "listingId",
          "type": "uint256"
        }
      ],
      "name": "unlistPokemon",
      "outputs": [],
      "stateMutability": "nonpayable",
      "type": "function"
    }
  ],
  "bytecode": "0x6080346100c357601f610fa938819003918201601f19168301916001600160401b038311848410176100c85780849260409485528339810103126100c357610052602061004b836100de565b92016100de565b60008054336001600160a01b0319808316821784556040519590946001600160a01b03949093859391908416907f8be0079c531659141344cd1fd0a4f28419497f9722a3daafe3b4186f6b6457e09080a31683600154161760015516906002541617600255610eb690816100f38239f35b600080fd5b634e487b7160e01b600052604160045260246000fd5b51906001600160a01b03821682036100c35756fe6080604081815260048036101561001557600080fd5b600092833560e01c908163150b7a0214610b98575080632d7e10bc146109e357806355a373d6146109ba5780636d50905f14610991578063715018a6146109345780637c2dbcdb1461081a57806387c35bc01461070c5780638da5cb5b146106e0578063a9b07c26146106c3578063c15f618a14610361578063de74e57b1461030b578063e1e930bc146101815763f2fde38b146100b257600080fd5b3461017d57602036600319011261017d576100cb610c0f565b906100d4610c89565b6001600160a01b0391821692831561012b575050600054826bffffffffffffffffffffffff60a01b821617600055167f8be0079c531659141344cd1fd0a4f28419497f9722a3daafe3b4186f6b6457e0600080a380f35b906020608492519162461bcd60e51b8352820152602660248201527f4f776e61626c653a206e6577206f776e657220697320746865207a65726f206160448201526564647265737360d01b6064820152fd5b8280fd5b503461017d578260031936011261017d57548260015b828111156102d257506101a981610dd1565b926101b681519485610d27565b8184526101c282610dd1565b946101d960209384870197601f1901368937610de9565b938160015b828111156102305750505090805194818601918652518091526060850195915b81811061021c578587038487015285806102188988610c2a565b0390f35b8251875295830195918301916001016101fe565b808452600380875260ff898183898920015416610259575b50505061025490610d68565b6101de565b9184918461026e61025496976102c996610e56565b52858852818a528888209189519261028584610ce1565b80546001600160a01b0316845260018101548c85015260028101548b850152015416151560608201526102b8828b610e56565b526102c3818a610e56565b50610d68565b91903889610248565b80855260ff6003806020528587200154166102f6575b6102f190610d68565b610197565b906103036102f191610d68565b9190506102e8565b503461017d57602036600319011261017d5760809282913581526003602052209060018060a01b038254169160018101549160ff6003600284015493015416928151948552602085015283015215156060820152f35b503461017d5760209182600319360112610567578135908185526003845280852090600382019161039560ff845416610d8d565b80546001600160a01b03908116959091903387146106825760025484516370a0823160e01b81523383820152979084168989602481845afa988915610678578b99610645575b5060028401988954809110610602579085949392918c8c9760015416600187019d8e5460248c51809481936331a9108f60e11b83528b8301525afa9182156105f75785928992906105ca575b50160361057c5787516323b872dd60e01b808252338287019081526001600160a01b03909516602086015260408501929092528d9493919290918891839182908890829060600103925af180156105725761053b575b5084600154169185855416928c5493813b156105375789519384526001600160a01b031691830191825233602083015260408201939093529091839183919082908490829060600103925af1801561052d57610515575b50507f4647de282052d6650703aa682b6b5b208487c77d74ac76657eec9b6c0189e8b69460ff1981541690555416955494549082519586528501523393a480f35b61051e90610d13565b6105295788386104d4565b8880fd5b86513d84823e3d90fd5b8580fd5b8681813d831161056b575b6105508183610d27565b8101031261056757518015150361017d573861047d565b8380fd5b503d610546565b88513d86823e3d90fd5b875162461bcd60e51b8152808501889052602260248201527f53656c6c6572206e6f206c6f6e676572206f776e73207468697320506f6b656d60448201526137b760f11b6064820152608490fd5b6105ea91508a3d8c116105f0575b6105e28183610d27565b810190610d49565b38610427565b503d6105d8565b8a51903d90823e3d90fd5b865162461bcd60e51b81528085018c9052601a60248201527f496e73756666696369656e7420746f6b656e2062616c616e63650000000000006044820152606490fd5b9098508981813d8311610671575b61065d8183610d27565b8101031261066d575197386103db565b8a80fd5b503d610653565b86513d8d823e3d90fd5b606490888086519262461bcd60e51b845283015260248201527f43616e6e6f7420707572636861736520796f7572206f776e20506f6b656d6f6e6044820152fd5b503461017d578260031936011261017d5760209250549051908152f35b505034610708578160031936011261070857905490516001600160a01b039091168152602090f35b5080fd5b50919034610708578160031936011261070857915491600182815b858111156107e1575061073990610de9565b928091805b8681111561075b5784516020808252819061021890820189610c2a565b808352600360209080825260ff87862091820154169081610788575b50505061078390610d68565b61073e565b9161078393969160026107d8948a51936107a185610ce1565b81546001600160a01b031685528882015490850152015489830152151560608201526107cd828a610e56565b526102c38189610e56565b93903880610777565b80855260ff600380602052858720015416610805575b61080090610d68565b610727565b9061081261080091610d68565b9190506107f7565b50903461017d57602036600319011261017d57813591828452600360205281842091600383019261084e60ff855416610d8d565b80546001600160a01b03908116330361090057906001879281541691015490803b1561017d5783516323b872dd60e01b8152309581019586523360208701526040860192909252909384919082908490829060600103925af19081156108f757506108e4575b50805460ff191690557f0606aa4ea8d6c076bc23b99c6c75828457a5e380ffc0f8442e4cc202f50d76b98280a280f35b6108f090939193610d13565b91386108b4565b513d86823e3d90fd5b825162461bcd60e51b8152602081860152600e60248201526d2737ba103a34329039b2b63632b960911b6044820152606490fd5b833461098e578060031936011261098e5761094d610c89565b80546001600160a01b03198116825581906001600160a01b03167f8be0079c531659141344cd1fd0a4f28419497f9722a3daafe3b4186f6b6457e08280a380f35b80fd5b50503461070857816003193601126107085760015490516001600160a01b039091168152602090f35b50503461070857816003193601126107085760025490516001600160a01b039091168152602090f35b503461017d578160031936011261017d5780359160243560018060a01b0392836001541693835180956331a9108f60e11b8252878483015281602460209889935afa908115610b8e578891610b71575b508133911603610b2e578215610aeb57907f3fce64c9611a0f8c290207161363f3ce43d1b2e952526baf779057e9a47938819392916003610a748354610d68565b91828455855190610a8482610ce1565b3382528882018a8152878301918783526060840195600187528d52848b52888d209351166bffffffffffffffffffffffff60a01b845416178355516001830155516002820155019051151560ff80198354169116179055549382519586528501523393a380f35b835162461bcd60e51b8152808301869052601c60248201527f5072696365206d7573742062652067726561746572207468616e2030000000006044820152606490fd5b835162461bcd60e51b8152808301869052601d60248201527f4e6f7420746865206f776e6572206f66207468697320506f6b656d6f6e0000006044820152606490fd5b610b889150863d88116105f0576105e28183610d27565b38610a33565b85513d8a823e3d90fd5b9250503461017d57608036600319011261017d57610bb4610c0f565b506024356001600160a01b0381160361017d576064359067ffffffffffffffff90818311610c0b5736602384011215610c0b57820135908111610567573691016024011161070857630a85bd0160e11b8152602090f35b8480fd5b600435906001600160a01b0382168203610c2557565b600080fd5b90815180825260208080930193019160005b828110610c4a575050505090565b835180516001600160a01b0316865280830151868401526040808201519087015260609081015115159086015260809094019392810192600101610c3c565b6000546001600160a01b03163303610c9d57565b606460405162461bcd60e51b815260206004820152602060248201527f4f776e61626c653a2063616c6c6572206973206e6f7420746865206f776e65726044820152fd5b6080810190811067ffffffffffffffff821117610cfd57604052565b634e487b7160e01b600052604160045260246000fd5b67ffffffffffffffff8111610cfd57604052565b90601f8019910116810190811067ffffffffffffffff821117610cfd57604052565b90816020910312610c2557516001600160a01b0381168103610c255790565b6000198114610d775760010190565b634e487b7160e01b600052601160045260246000fd5b15610d9457565b60405162461bcd60e51b81526020600482015260156024820152744c697374696e67206973206e6f742061637469766560581b6044820152606490fd5b67ffffffffffffffff8111610cfd5760051b60200190565b90610df382610dd1565b604090610e0282519182610d27565b8381528093610e13601f1991610dd1565b019160005b838110610e255750505050565b6020908251610e3381610ce1565b600081528260008183015260008583015260006060830152828601015201610e18565b8051821015610e6a5760209160051b010190565b634e487b7160e01b600052603260045260246000fdfea2646970667358221220f93a06f65a39d6b2d28f6ffffb25e5fae037ca4689068bf81f01c37a20c0775a64736f6c63430008130033",
  "linkReferences": {},
  "deployedLinkReferences": {}
}