{
  "_format": "hh-sol-artifact-1",
  "contractName": "Pokemon",
  "sourceName": "contracts/Pokemon.sol",
  "abi": [
    {
      "inputs": [],
      "stateMutability": "nonpayable",
      "type": "constructor"
    },
    {
      "anonymous": false,
      "inputs": [
        {
          "indexed": true,
          "internalType": "address",
          "name": "owner",
          "type": "address"
        },
        {
          "indexed": true,
          "internalType": "address",
          "name": "approved",
          "type": "address"
        },
        {
          "indexed": true,
          "internalType": "uint256",
          "name": "tokenId",
          "type": "uint256"
        }
      ],
      "name": "Approval",
      "type": "event"
    },
    {
      "anonymous": false,
      "inputs": [
        {
          "indexed": true,
          "internalType": "address",
          "name": "owner",
          "type": "address"
        },
        {
          "indexed": true,
          "internalType": "address",
          "name": "operator",
          "type": "address"
        },
        {
          "indexed": false,
          "internalType": "bool",
          "name": "approved",
          "type": "bool"
        }
      ],
      "name": "ApprovalForAll",
      "type": "event"
    },
    {
      "anonymous": false,
      "inputs": [
        {
          "indexed": true,
          "internalType": "address",
          "name": "previousOwner",
          "type": "address"
        },
        {
          "indexed": true,
          "internalType": "address",
          "name": "newOwner",
          "type": "address"
        }
      ],
      "name": "OwnershipTransferred",
      "type": "event"
    },
    {
      "anonymous": false,
      "inputs": [
        {
          "indexed": true,
          "internalType": "uint256",
          "name": "tokenId",
          "type": "uint256"
        },
        {
          "indexed": false,
          "internalType": "uint256",
          "name": "newPokemonId",
          "type": "uint256"
        }
      ],
      "name": "PokemonEvolved",
      "type": "event"
    },
    {
      "anonymous": false,
      "inputs": [
        {
          "indexed": true,
          "internalType": "uint256",
          "name": "tokenId",
          "type": "uint256"
        },
        {
          "indexed": false,
          "internalType": "uint256",
          "name": "level",
          "type": "uint256"
        }
      ],
      "name": "PokemonLeveledUp",
      "type": "event"
    },
    {
      "anonymous": false,
      "inputs": [
        {
          "indexed": true,
          "internalType": "address",
          "name": "owner",
          "type": "address"
        },
        {
          "indexed": false,
          "internalType": "uint256",
          "name": "tokenId",
          "type": "uint256"
        },
        {
          "indexed": false,
          "internalType": "uint256",
          "name": "pokemonId",
          "type": "uint256"
        }
      ],
      "name": "PokemonMinted",
      "type": "event"
    },
    {
      "anonymous": false,
      "inputs": [
        {
          "indexed": true,
          "internalType": "address",
          "name": "owner",
          "type": "address"
        },
        {
          "indexed": false,
          "internalType": "uint256",
          "name": "tokenId",
          "type": "uint256"
        }
      ],
      "name": "PokemonRemoved",
      "type": "event"
    },
    {
      "anonymous": false,
      "inputs": [
        {
          "indexed": true,
          "internalType": "uint256",
          "name": "tokenId",
          "type": "uint256"
        },
        {
          "indexed": false,
          "internalType": "uint256",
          "name": "experience",
          "type": "uint256"
        },
        {
          "indexed": false,
          "internalType": "uint256",
          "name": "level",
          "type": "uint256"
        }
      ],
      "name": "PokemonTrained",
      "type": "event"
    },
    {
      "anonymous": false,
      "inputs": [
        {
          "indexed": true,
          "internalType": "address",
          "name": "from",
          "type": "address"
        },
        {
          "indexed": true,
          "internalType": "address",
          "name": "to",
          "type": "address"
        },
        {
          "indexed": true,
          "internalType": "uint256",
          "name": "tokenId",
          "type": "uint256"
        }
      ],
      "name": "Transfer",
      "type": "event"
    },
    {
      "inputs": [],
      "name": "BASE_EXP_REQUIRED",
      "outputs": [
        {
          "internalType": "uint256",
          "name": "",
          "type": "uint256"
        }
      ],
      "stateMutability": "view",
      "type": "function"
    },
    {
      "inputs": [],
      "name": "EXP_MULTIPLIER",
      "outputs": [
        {
          "internalType": "uint256",
          "name": "",
          "type": "uint256"
        }
      ],
      "stateMutability": "view",
      "type": "function"
    },
    {
      "inputs": [],
      "name": "STATS_INCREASE",
      "outputs": [
        {
          "internalType": "uint256",
          "name": "",
          "type": "uint256"
        }
      ],
      "stateMutability": "view",
      "type": "function"
    },
    {
      "inputs": [],
      "name": "TRAINING_EXP_GAIN",
      "outputs": [
        {
          "internalType": "uint256",
          "name": "",
          "type": "uint256"
        }
      ],
      "stateMutability": "view",
      "type": "function"
    },
    {
      "inputs": [],
      "name": "TRAINING_STAMINA_COST",
      "outputs": [
        {
          "internalType": "uint256",
          "name": "",
          "type": "uint256"
        }
      ],
      "stateMutability": "view",
      "type": "function"
    },
    {
      "inputs": [
        {
          "internalType": "address",
          "name": "contractAddress",
          "type": "address"
        }
      ],
      "name": "addAuthorizedContract",
      "outputs": [],
      "stateMutability": "nonpayable",
      "type": "function"
    },
    {
      "inputs": [
        {
          "internalType": "uint256",
          "name": "tokenId",
          "type": "uint256"
        },
        {
          "internalType": "uint256",
          "name": "experience",
          "type": "uint256"
        }
      ],
      "name": "addExperience",
      "outputs": [],
      "stateMutability": "nonpayable",
      "type": "function"
    },
    {
      "inputs": [
        {
          "internalType": "address",
          "name": "to",
          "type": "address"
        },
        {
          "internalType": "uint256",
          "name": "tokenId",
          "type": "uint256"
        }
      ],
      "name": "approve",
      "outputs": [],
      "stateMutability": "nonpayable",
      "type": "function"
    },
    {
      "inputs": [
        {
          "internalType": "address",
          "name": "",
          "type": "address"
        }
      ],
      "name": "authorizedContracts",
      "outputs": [
        {
          "internalType": "bool",
          "name": "",
          "type": "bool"
        }
      ],
      "stateMutability": "view",
      "type": "function"
    },
    {
      "inputs": [
        {
          "internalType": "address",
          "name": "owner",
          "type": "address"
        }
      ],
      "name": "balanceOf",
      "outputs": [
        {
          "internalType": "uint256",
          "name": "",
          "type": "uint256"
        }
      ],
      "stateMutability": "view",
      "type": "function"
    },
    {
      "inputs": [
        {
          "internalType": "uint256",
          "name": "",
          "type": "uint256"
        }
      ],
      "name": "evolutionData",
      "outputs": [
        {
          "internalType": "uint256",
          "name": "nextEvolutionId",
          "type": "uint256"
        },
        {
          "internalType": "uint256",
          "name": "evolutionLevel",
          "type": "uint256"
        }
      ],
      "stateMutability": "view",
      "type": "function"
    },
    {
      "inputs": [
        {
          "internalType": "uint256",
          "name": "",
          "type": "uint256"
        }
      ],
      "name": "evolutionLevels",
      "outputs": [
        {
          "internalType": "uint256",
          "name": "",
          "type": "uint256"
        }
      ],
      "stateMutability": "view",
      "type": "function"
    },
    {
      "inputs": [
        {
          "internalType": "uint256",
          "name": "",
          "type": "uint256"
        }
      ],
      "name": "evolutionTargets",
      "outputs": [
        {
          "internalType": "uint256",
          "name": "",
          "type": "uint256"
        }
      ],
      "stateMutability": "view",
      "type": "function"
    },
    {
      "inputs": [
        {
          "internalType": "uint256",
          "name": "tokenId",
          "type": "uint256"
        }
      ],
      "name": "getApproved",
      "outputs": [
        {
          "internalType": "address",
          "name": "",
          "type": "address"
        }
      ],
      "stateMutability": "view",
      "type": "function"
    },
    {
      "inputs": [
        {
          "internalType": "uint256",
          "name": "tokenId",
          "type": "uint256"
        }
      ],
      "name": "getPokemon",
      "outputs": [
        {
          "components": [
            {
              "internalType": "uint256",
              "name": "pokemonId",
              "type": "uint256"
            },
            {
              "internalType": "uint256",
              "name": "level",
              "type": "uint256"
            },
            {
              "internalType": "uint256",
              "name": "experience",
              "type": "uint256"
            },
            {
              "internalType": "uint256",
              "name": "hp",
              "type": "uint256"
            },
            {
              "internalType": "uint256",
              "name": "maxHp",
              "type": "uint256"
            },
            {
              "internalType": "uint256",
              "name": "attack",
              "type": "uint256"
            },
            {
              "internalType": "uint256",
              "name": "defense",
              "type": "uint256"
            },
            {
              "internalType": "uint256",
              "name": "speed",
              "type": "uint256"
            },
            {
              "internalType": "uint256",
              "name": "stamina",
              "type": "uint256"
            },
            {
              "internalType": "bool",
              "name": "isResting",
              "type": "bool"
            },
            {
              "internalType": "uint256",
              "name": "lastTrainingTime",
              "type": "uint256"
            }
          ],
          "internalType": "struct Pokemon.PokemonData",
          "name": "",
          "type": "tuple"
        }
      ],
      "stateMutability": "view",
      "type": "function"
    },
    {
      "inputs": [
        {
          "internalType": "address",
          "name": "user",
          "type": "address"
        }
      ],
      "name": "getUserPokemon",
      "outputs": [
        {
          "internalType": "uint256[]",
          "name": "",
          "type": "uint256[]"
        }
      ],
      "stateMutability": "view",
      "type": "function"
    },
    {
      "inputs": [
        {
          "internalType": "address",
          "name": "",
          "type": "address"
        }
      ],
      "name": "hasStarter",
      "outputs": [
        {
          "internalType": "bool",
          "name": "",
          "type": "bool"
        }
      ],
      "stateMutability": "view",
      "type": "function"
    },
    {
      "inputs": [
        {
          "internalType": "address",
          "name": "owner",
          "type": "address"
        },
        {
          "internalType": "address",
          "name": "operator",
          "type": "address"
        }
      ],
      "name": "isApprovedForAll",
      "outputs": [
        {
          "internalType": "bool",
          "name": "",
          "type": "bool"
        }
      ],
      "stateMutability": "view",
      "type": "function"
    },
    {
      "inputs": [
        {
          "internalType": "address",
          "name": "to",
          "type": "address"
        },
        {
          "internalType": "uint256",
          "name": "pokemonId",
          "type": "uint256"
        }
      ],
      "name": "mintPokemon",
      "outputs": [
        {
          "internalType": "uint256",
          "name": "",
          "type": "uint256"
        }
      ],
      "stateMutability": "nonpayable",
      "type": "function"
    },
    {
      "inputs": [
        {
          "internalType": "uint256",
          "name": "pokemonId",
          "type": "uint256"
        }
      ],
      "name": "mintStarterPokemon",
      "outputs": [
        {
          "internalType": "uint256",
          "name": "",
          "type": "uint256"
        }
      ],
      "stateMutability": "nonpayable",
      "type": "function"
    },
    {
      "inputs": [],
      "name": "name",
      "outputs": [
        {
          "internalType": "string",
          "name": "",
          "type": "string"
        }
      ],
      "stateMutability": "view",
      "type": "function"
    },
    {
      "inputs": [],
      "name": "owner",
      "outputs": [
        {
          "internalType": "address",
          "name": "",
          "type": "address"
        }
      ],
      "stateMutability": "view",
      "type": "function"
    },
    {
      "inputs": [
        {
          "internalType": "uint256",
          "name": "tokenId",
          "type": "uint256"
        }
      ],
      "name": "ownerOf",
      "outputs": [
        {
          "internalType": "address",
          "name": "",
          "type": "address"
        }
      ],
      "stateMutability": "view",
      "type": "function"
    },
    {
      "inputs": [
        {
          "internalType": "uint256",
          "name": "",
          "type": "uint256"
        }
      ],
      "name": "pokemonData",
      "outputs": [
        {
          "internalType": "uint256",
          "name": "pokemonId",
          "type": "uint256"
        },
        {
          "internalType": "uint256",
          "name": "level",
          "type": "uint256"
        },
        {
          "internalType": "uint256",
          "name": "experience",
          "type": "uint256"
        },
        {
          "internalType": "uint256",
          "name": "hp",
          "type": "uint256"
        },
        {
          "internalType": "uint256",
          "name": "maxHp",
          "type": "uint256"
        },
        {
          "internalType": "uint256",
          "name": "attack",
          "type": "uint256"
        },
        {
          "internalType": "uint256",
          "name": "defense",
          "type": "uint256"
        },
        {
          "internalType": "uint256",
          "name": "speed",
          "type": "uint256"
        },
        {
          "internalType": "uint256",
          "name": "stamina",
          "type": "uint256"
        },
        {
          "internalType": "bool",
          "name": "isResting",
          "type": "bool"
        },
        {
          "internalType": "uint256",
          "name": "lastTrainingTime",
          "type": "uint256"
        }
      ],
      "stateMutability": "view",
      "type": "function"
    },
    {
      "inputs": [
        {
          "internalType": "uint256",
          "name": "",
          "type": "uint256"
        }
      ],
      "name": "pokemonToOwner",
      "outputs": [
        {
          "internalType": "address",
          "name": "",
          "type": "address"
        }
      ],
      "stateMutability": "view",
      "type": "function"
    },
    {
      "inputs": [
        {
          "internalType": "address",
          "name": "contractAddress",
          "type": "address"
        }
      ],
      "name": "removeAuthorizedContract",
      "outputs": [],
      "stateMutability": "nonpayable",
      "type": "function"
    },
    {
      "inputs": [
        {
          "internalType": "uint256",
          "name": "tokenId",
          "type": "uint256"
        }
      ],
      "name": "removePokemon",
      "outputs": [],
      "stateMutability": "nonpayable",
      "type": "function"
    },
    {
      "inputs": [],
      "name": "renounceOwnership",
      "outputs": [],
      "stateMutability": "nonpayable",
      "type": "function"
    },
    {
      "inputs": [
        {
          "internalType": "uint256",
          "name": "tokenId",
          "type": "uint256"
        }
      ],
      "name": "restPokemon",
      "outputs": [],
      "stateMutability": "nonpayable",
      "type": "function"
    },
    {
      "inputs": [
        {
          "internalType": "address",
          "name": "from",
          "type": "address"
        },
        {
          "internalType": "address",
          "name": "to",
          "type": "address"
        },
        {
          "internalType": "uint256",
          "name": "tokenId",
          "type": "uint256"
        }
      ],
      "name": "safeTransferFrom",
      "outputs": [],
      "stateMutability": "nonpayable",
      "type": "function"
    },
    {
      "inputs": [
        {
          "internalType": "address",
          "name": "from",
          "type": "address"
        },
        {
          "internalType": "address",
          "name": "to",
          "type": "address"
        },
        {
          "internalType": "uint256",
          "name": "tokenId",
          "type": "uint256"
        },
        {
          "internalType": "bytes",
          "name": "data",
          "type": "bytes"
        }
      ],
      "name": "safeTransferFrom",
      "outputs": [],
      "stateMutability": "nonpayable",
      "type": "function"
    },
    {
      "inputs": [
        {
          "internalType": "address",
          "name": "operator",
          "type": "address"
        },
        {
          "internalType": "bool",
          "name": "approved",
          "type": "bool"
        }
      ],
      "name": "setApprovalForAll",
      "outputs": [],
      "stateMutability": "nonpayable",
      "type": "function"
    },
    {
      "inputs": [
        {
          "internalType": "bytes4",
          "name": "interfaceId",
          "type": "bytes4"
        }
      ],
      "name": "supportsInterface",
      "outputs": [
        {
          "internalType": "bool",
          "name": "",
          "type": "bool"
        }
      ],
      "stateMutability": "view",
      "type": "function"
    },
    {
      "inputs": [],
      "name": "symbol",
      "outputs": [
        {
          "internalType": "string",
          "name": "",
          "type": "string"
        }
      ],
      "stateMutability": "view",
      "type": "function"
    },
    {
      "inputs": [
        {
          "internalType": "uint256",
          "name": "tokenId",
          "type": "uint256"
        }
      ],
      "name": "tokenURI",
      "outputs": [
        {
          "internalType": "string",
          "name": "",
          "type": "string"
        }
      ],
      "stateMutability": "view",
      "type": "function"
    },
    {
      "inputs": [
        {
          "internalType": "uint256",
          "name": "tokenId",
          "type": "uint256"
        }
      ],
      "name": "train",
      "outputs": [],
      "stateMutability": "nonpayable",
      "type": "function"
    },
    {
      "inputs": [
        {
          "internalType": "address",
          "name": "from",
          "type": "address"
        },
        {
          "internalType": "address",
          "name": "to",
          "type": "address"
        },
        {
          "internalType": "uint256",
          "name": "tokenId",
          "type": "uint256"
        }
      ],
      "name": "transferFrom",
      "outputs": [],
      "stateMutability": "nonpayable",
      "type": "function"
    },
    {
      "inputs": [
        {
          "internalType": "address",
          "name": "newOwner",
          "type": "address"
        }
      ],
      "name": "transferOwnership",
      "outputs": [],
      "stateMutability": "nonpayable",
      "type": "function"
    },
    {
      "inputs": [
        {
          "internalType": "address",
          "name": "",
          "type": "address"
        },
        {
          "internalType": "uint256",
          "name": "",
          "type": "uint256"
        }
      ],
      "name": "userPokemon",
      "outputs": [
        {
          "internalType": "uint256",
          "name": "",
          "type": "uint256"
        }
      ],
      "stateMutability": "view",
      "type": "function"
    },
    {
      "inputs": [
        {
          "internalType": "uint256",
          "name": "tokenId",
          "type": "uint256"
        }
      ],
      "name": "wakeUpPokemon",
      "outputs": [],
      "stateMutability": "nonpayable",
      "type": "function"
    }
  ],
  "bytecode": "0x60406080815234620004e15762000015620004e6565b90600782526020662837b5b2b6b7b760c91b8184015262000035620004e6565b6004808252632825a6a760e11b838301528451919491926001600160401b0392838511620004cc576000938454956001928388811c98168015620004c1575b85891014620004ae578190601f988981116200045b575b508590898311600114620003f7578892620003eb575b5050600019600383901b1c191690831b1785555b8751908111620003d85781548281811c91168015620003cd575b84821014620003ba5786811162000376575b5086978597969750839782116001146200030d5760869786918362000301575b5050600019600383901b1c191690821b1781555b60068054336001600160a01b0319821681179092556001600160a01b03167f8be0079c531659141344cd1fd0a4f28419497f9722a3daafe3b4186f6b6457e08680a362000161620004e6565b6002815282810190600a825282865282600b9283865288882092518355519101556200018c620004e6565b600381528284820160148152600288528386528888209251835551910155620001b4620004e6565b6005815282848201600a81528688528386528888209251835551910155620001db620004e6565b60068152828482016014815260058852838652888820925183555191015562000203620004e6565b6008815282848201600a8152600788528386528888209251835551910155816200022c620004e6565b9160098352848301906014825260088852855287872092518355519101558352600e808252601085852055600f92838352600286862055600285528183528286862055838352600386862055845280825260108585205582825260058585205560058452808252602485852055828252600685852055600784528082526010858520558282526008858520556008845280825260248585205582825260098585205560198452808252602485852055828252601a858520556085845281526019848420555220555161268e90816200051d8239f35b01519050388062000101565b8286528386209790601f198316875b8181106200035d57509160869991848695941062000343575b505050811b01815562000115565b015160001960f88460031b161c1916905538808062000335565b828401518b55998501998b99509286019286016200031c565b8286528386208780840160051c820192868510620003b0575b0160051c01905b818110620003a55750620000e1565b868155830162000396565b925081926200038f565b634e487b7160e01b865260228552602486fd5b90607f1690620000cf565b634e487b7160e01b855260418452602485fd5b015190503880620000a1565b8880528689208694509190601f1984168a5b898282106200044457505084116200042a575b505050811b018555620000b5565b015160001960f88460031b161c191690553880806200041c565b838501518655899790950194938401930162000409565b9091508780528588208980850160051c820192888610620004a4575b918791869594930160051c01915b828110620004955750506200008b565b8a815585945087910162000485565b9250819262000477565b634e487b7160e01b875260228652602487fd5b97607f169762000074565b604183634e487b7160e01b6000525260246000fd5b600080fd5b60408051919082016001600160401b038111838210176200050657604052565b634e487b7160e01b600052604160045260246000fdfe608080604052600436101561001357600080fd5b60003560e01c90816301ffc9a714611c4c5750806306fdde0314611b8d578063081812fc14611b6f578063095ea7b3146119f5578063119cdc52146119d95780631445be84146119a45780631c7bd8121461198857806323b7a29d1461195c57806323b872dd146119335780632f7467b3146118ff5780633344a1e3146116dd578063368004ed146113e75780633ee2156a146113cb57806342842e0e146113a35780635b1c57c5146113775780635d240c581461110c5780636352211e146110dc57806370a0823114611045578063715018a614610fe857806379a7f54914610f90578063860693c014610ed45780638855617a14610e955780638a6cce3b14610de15780638da5cb5b14610db857806395d89b4114610cad57806398eaa4a714610c68578063a22cb46514610b8d578063b88d4fde14610b02578063c1b2c1ae14610a62578063c87b56dd146109f1578063d5b9221b146109b2578063e0ec518814610840578063e47248dc146105a3578063e6b165ed14610561578063e7ecb45314610545578063e985e9c5146104ef578063f0b305db14610370578063f2fde38b146102ac578063f8f86137146102905763fdc69f59146101d757600080fd5b3461028b5760208060031936011261028b576001600160a01b036101f9611cf7565b1660005260098152604060002060405190818382549182815201908192600052846000209060005b8682821061027757868661023782880383611dbf565b604051928392818401908285525180915260408401929160005b82811061026057505050500390f35b835185528695509381019392810192600101610251565b835485529093019260019283019201610221565b600080fd5b3461028b57600036600319011261028b576020604051600a8152f35b3461028b57602036600319011261028b576102c5611cf7565b6102cd611dfd565b6001600160a01b0390811690811561031c57600654826001600160601b0360a01b821617600655167f8be0079c531659141344cd1fd0a4f28419497f9722a3daafe3b4186f6b6457e0600080a3005b60405162461bcd60e51b815260206004820152602660248201527f4f776e61626c653a206e6577206f776e657220697320746865207a65726f206160448201526564647265737360d01b6064820152608490fd5b3461028b57602036600319011261028b57610160600435600060405161039581611d86565b8181528160208201528160408201528160608201528160808201528160a08201528160c08201528160e082015261010082818301526101209383858401526101409384809401526104036103fe82600052600260205260018060a01b0360406000205416151590565b61255d565b60005260086020526040600020936040519161041e83611d86565b600a86549687855260018101546020860152600281015460408601526003810154606086015260048101546080860152600581015460a0860152600681015460c0860152600781015460e086015260088101548386015260ff6009820154161515848601520154848401526040519586526020830151602087015260408301516040870152606083015160608701526080830151608087015260a083015160a087015260c083015160c087015260e083015160e0870152808301519086015280820151151590850152015190820152f35b3461028b57604036600319011261028b57610508611cf7565b610510611d0d565b9060018060a01b03809116600052600560205260406000209116600052602052602060ff604060002054166040519015158152f35b3461028b57600036600319011261028b57602060405160648152f35b3461028b57602036600319011261028b5761057a611cf7565b610582611dfd565b6001600160a01b03166000908152600d60205260409020805460ff19169055005b3461028b5760208060031936011261028b57600435600181148015610836575b801561082c575b8015610822575b156107dd5733600052600c825260ff6040600020541661079857336000526009825260406000205461075d57600160075401908160075560405161061481611d86565b818152600a60006106c9818487898083016001815260408401858152606085016064815260808601916064835260a08701938b8552600860c08901968d885260e08a01988e8a526101406101008c019b60648d5261012081019d8e52019d8e526000525260406000209c518d555160018d01555160028c01555160038b01555160048a0155516005890155516006880155516007870155516008860155511515600985019060ff801983541691151516179055565b519101556106d7823361243e565b33600052600983526106ed8260406000206123c8565b81600052600a83526040600020336001600160601b0360a01b82541617905533600052600c83526040600020600160ff1982541617905560405190828252838201527fd69f7156d23a1d9b23e1cbdea811a6be9376a306fc27a7a5663656f2756e55b560403392a2604051908152f35b60405162461bcd60e51b815260048101839052601360248201527220b63932b0b23c903430b9902837b5b2b6b7b760691b6044820152606490fd5b60405162461bcd60e51b815260048101839052601d60248201527f416c7265616479206861732061207374617274657220506f6b656d6f6e0000006044820152606490fd5b60405162461bcd60e51b815260048101839052601760248201527f496e76616c6964207374617274657220506f6b656d6f6e0000000000000000006044820152606490fd5b50601981146105d1565b50600781146105ca565b50600481146105c3565b3461028b57602036600319011261028b57600435600081815260026020526040902054610877906001600160a01b0316151561255d565b61088081611ea1565b6001600160a01b03919061089790831633146125b1565b33600052600960205260406000209160005b8354808210156109a657836108be8387611d58565b919054600392831b1c146108dc5750506108d7906125a2565b6108a9565b9194600019820192909183116109905761093f956109106109299261090461092e9686611d58565b9054911b1c9184611d58565b90919082549060031b91821b91600019901b1916179055565b6125fd565b6109383392611ea1565b1614612070565b60405162461bcd60e51b8152602060048201526024808201527f4552433732313a207472616e7366657220746f20746865207a65726f206164646044820152637265737360e01b6064820152608490fd5b634e487b7160e01b600052601160045260246000fd5b505061093f925061092e565b3461028b57602036600319011261028b576001600160a01b036109d3611cf7565b16600052600d602052602060ff604060002054166040519015158152f35b3461028b57602036600319011261028b57600435600090815260026020526040902054610a28906001600160a01b03161515611e55565b6000604051610a3681611da3565b52610a5e604051610a4681611da3565b60008152604051918291602083526020830190611cb7565b0390f35b3461028b57602036600319011261028b57600435600052600860205261016060406000208054906001810154906002810154600382015460048301546005840154600685015491600786015493600887015495600a60ff60098a015416980154986040519a8b5260208b015260408a01526060890152608088015260a087015260c086015260e08501526101008401521515610120830152610140820152f35b3461028b57608036600319011261028b57610b1b611cf7565b610b23611d0d565b6064359167ffffffffffffffff831161028b573660238401121561028b57826004013591610b5083611de1565b92610b5e6040519485611dbf565b808452366024828701011161028b576020816000926024610b8b9801838801378501015260443591611f67565b005b3461028b57604036600319011261028b57610ba6611cf7565b602435908115159081830361028b576001600160a01b031691338314610c2357610bf59033600052600560205260406000208460005260205260406000209060ff801983541691151516179055565b6040519081527f17307eab39ab6107e8899845ad3d59bd9653f200f220920489ca2b5937696c3160203392a3005b60405162461bcd60e51b815260206004820152601960248201527f4552433732313a20617070726f766520746f2063616c6c6572000000000000006044820152606490fd5b3461028b57602036600319011261028b57610c81611cf7565b610c89611dfd565b6001600160a01b03166000908152600d60205260409020805460ff19166001179055005b3461028b57600036600319011261028b57604051600060019081549182811c91818416918215610dae575b6020948585108414610d98578587948686529182600014610d78575050600114610d1e575b50610d0a92500383611dbf565b610a5e604051928284938452830190611cb7565b6000818152859250907fb10e2d527612073b26eecdfd717e6a320cf44b4afac2b0732d9fcbe2b7fa0cf65b858310610d60575050610d0a935082010185610cfd565b80548389018501528794508693909201918101610d49565b60ff191685820152610d0a95151560051b8501019250879150610cfd9050565b634e487b7160e01b600052602260045260246000fd5b92607f1692610cd8565b3461028b57600036600319011261028b576006546040516001600160a01b039091168152602090f35b3461028b57602036600319011261028b57600435600081815260026020526040902054610e18906001600160a01b0316151561255d565b610e34610e2482611ea1565b6001600160a01b031633146125b1565b60005260086020526009604060002001805460ff811615610e575760ff19169055005b60405162461bcd60e51b8152602060048201526016602482015275506f6b656d6f6e206973206e6f742072657374696e6760501b6044820152606490fd5b3461028b57602036600319011261028b576001600160a01b03610eb6611cf7565b16600052600c602052602060ff604060002054166040519015158152f35b3461028b57602036600319011261028b57600435600081815260026020526040902054610f0b906001600160a01b0316151561255d565b610f17610e2482611ea1565b6000526008602052604060002060098101805460ff8116610f4b5760ff191660011790556064600882015542600a90910155005b60405162461bcd60e51b815260206004820152601a60248201527f506f6b656d6f6e20697320616c72656164792072657374696e670000000000006044820152606490fd5b3461028b57604036600319011261028b57610fa9611cf7565b6001600160a01b031660009081526009602052604090208054602435919082101561028b57602091610fda91611d58565b90546040519160031b1c8152f35b3461028b57600036600319011261028b57611001611dfd565b600680546001600160a01b031981169091556000906001600160a01b03167f8be0079c531659141344cd1fd0a4f28419497f9722a3daafe3b4186f6b6457e08280a3005b3461028b57602036600319011261028b576001600160a01b03611066611cf7565b1680156110855760005260036020526020604060002054604051908152f35b60405162461bcd60e51b815260206004820152602960248201527f4552433732313a2061646472657373207a65726f206973206e6f7420612076616044820152683634b21037bbb732b960b91b6064820152608490fd5b3461028b57602036600319011261028b5760206110fa600435611ea1565b6040516001600160a01b039091168152f35b3461028b57604036600319011261028b57600435600090815260026020526040902054611143906001600160a01b0316151561255d565b33600052600d60205260ff604060002054168015611363575b1561131f5760043560005260086020526040600020600281015460243581018091116109905760028201556001810154606481028181046064148215171561099057905b600283015491808310611317578281810311610990576111c5920360028401556125a2565b80606482028281046064148315171561099057916004840154600a810180911161099057806004860155600385015560058401546002810180911161099057600585015560068401546002810180911161099057600685015560078401546002810181116109905760020160078501556040518181527fd799fe2c0d557e13a5f27e1feaf0ee126b454c74f55af123feae29aa65dd5bdd602060043592a28354600052600b60205260406000209060405180604081011067ffffffffffffffff604083011117611301578060406020920160405260018454948583520154918291015282151591826112f6575b50506112bf575b506111a0565b8084556040519081527fb2672298e1fba574488020f2ce2de1babb9bd60cc84dfc9f329c9a57aeffb00e602060043592a2836112b9565b1015905085806112b2565b634e487b7160e01b600052604160045260246000fd5b506001830155005b606460405162461bcd60e51b815260206004820152602060248201527f4e6f7420617574686f72697a656420746f2061646420657870657269656e63656044820152fd5b506006546001600160a01b0316331461115c565b3461028b57602036600319011261028b57600435600052600f6020526020604060002054604051908152f35b3461028b57610b8b6113b436611d23565b90604051926113c284611da3565b60008452611f67565b3461028b57600036600319011261028b57602060405160328152f35b3461028b5760208060031936011261028b576004359061140682611ea1565b336001600160a01b039091160361169957816000526008815260406000209060ff6009830154166116605760088201805490600a821061162657600919820191821161099057556002820180549260328401809411610990576001908483550192835460001981019081116109905761147e9061263d565b90816064029160648304036109905710156114c7575b54915460408051938452918301527fa675b7889f0f77ee3cdc136c97d64b928265d252c7098bab774349a223db30a891a2005b91836000526008825260406000209160018301936114e585546125a2565b93848655600481018054906005820180921161099057819055600382015560058101805490600582018092116109905755600681018054906005820180921161099057556007810180549060058201809211610990577fa675b7889f0f77ee3cdc136c97d64b928265d252c7098bab774349a223db30a8976040978a947fd799fe2c0d557e13a5f27e1feaf0ee126b454c74f55af123feae29aa65dd5bdd948894556064600882015554600052600e83528860002054801515918261161b575b50506115bd575b548751908152a29193509150611494565b836000526008825283886000208054600052600f8452838a60002054806115e8575b505050506115ac565b807fb2672298e1fba574488020f2ce2de1babb9bd60cc84dfc9f329c9a57aeffb00e93558b51908152a2838b83816115df565b101590508b806115a5565b60405162461bcd60e51b81526004810184905260126024820152714e6f7420656e6f756768207374616d696e6160701b6044820152606490fd5b6064906040519062461bcd60e51b825260048201526012602482015271506f6b656d6f6e2069732072657374696e6760701b6044820152fd5b6064906040519062461bcd60e51b82526004820152601a60248201527f596f7520646f6e2774206f776e207468697320506f6b656d6f6e0000000000006044820152fd5b3461028b57604036600319011261028b576116f6611cf7565b60243590611702611dfd565b811515806118f4575b156118ba5760018060a01b0381168060005260209260098452600360406000205410156118755760407fd69f7156d23a1d9b23e1cbdea811a6be9376a306fc27a7a5663656f2756e55b59161182f60016007540180968160075581600a6000611826818d8a5195869161177d83611d86565b8b8352808301600181528d8401858152606085016064815260808601916064835260a08701938b8552600860c08901968d885260e08a01988e8a526101406101008c019b60648d5261012081019d8e52019d8e526000525260406000209c518d555160018d01555160028c01555160038b01555160048a0155516005890155516006880155516007870155516008860155511515600985019060ff801983541691151516179055565b5191015561243e565b836000526009865261184485836000206123c8565b84600052600a865281600020846001600160601b0360a01b82541617905581519085825286820152a2604051908152f35b60405162461bcd60e51b815260048101859052601a60248201527f4d6178696d756d203320506f6b656d6f6e2070657220757365720000000000006044820152606490fd5b60405162461bcd60e51b8152602060048201526012602482015271125b9d985b1a5908141bdad95b5bdb88125160721b6044820152606490fd5b50609682111561170b565b3461028b57602036600319011261028b57600435600052600a602052602060018060a01b0360406000205416604051908152f35b3461028b57610b8b61194436611d23565b916119576119528433612002565b611f05565b6120ca565b3461028b57602036600319011261028b57600435600052600e6020526020604060002054604051908152f35b3461028b57600036600319011261028b57602060405160028152f35b3461028b57602036600319011261028b57600435600052600b6020526040806000206001815491015482519182526020820152f35b3461028b57600036600319011261028b57602060405160058152f35b3461028b57604036600319011261028b57611a0e611cf7565b602435906001600160a01b038080611a2585611ea1565b16921691808314611b2057803314908115611afb575b5015611a9057600083815260046020526040902080546001600160a01b03191683179055611a6883611ea1565b167f8c5be1e5ebec7d5bd14f71427d1e84f3dd0314c0f7b2291e5b200ac8c7c3b925600080a4005b60405162461bcd60e51b815260206004820152603d60248201527f4552433732313a20617070726f76652063616c6c6572206973206e6f7420746f60448201527f6b656e206f776e6572206f7220617070726f76656420666f7220616c6c0000006064820152608490fd5b9050600052600560205260406000203360005260205260ff6040600020541684611a3b565b60405162461bcd60e51b815260206004820152602160248201527f4552433732313a20617070726f76616c20746f2063757272656e74206f776e656044820152603960f91b6064820152608490fd5b3461028b57602036600319011261028b5760206110fa600435611ec7565b3461028b57600036600319011261028b576040516000805490600182811c91818416918215611c42575b6020948585108414610d98578587948686529182600014610d78575050600114611be85750610d0a92500383611dbf565b6000808052859250907f290decd9548b62a8d60345a988386fc84ba6bc95484008f6362f93160ef3e5635b858310611c2a575050610d0a935082010185610cfd565b80548389018501528794508693909201918101611c13565b92607f1692611bb7565b3461028b57602036600319011261028b576004359063ffffffff60e01b821680920361028b576020916380ac58cd60e01b8114908115611ca6575b8115611c95575b5015158152f35b6301ffc9a760e01b14905083611c8e565b635b5e139f60e01b81149150611c87565b919082519283825260005b848110611ce3575050826000602080949584010152601f8019910116010190565b602081830181015184830182015201611cc2565b600435906001600160a01b038216820361028b57565b602435906001600160a01b038216820361028b57565b606090600319011261028b576001600160a01b0390600435828116810361028b5791602435908116810361028b579060443590565b8054821015611d705760005260206000200190600090565b634e487b7160e01b600052603260045260246000fd5b610160810190811067ffffffffffffffff82111761130157604052565b6020810190811067ffffffffffffffff82111761130157604052565b90601f8019910116810190811067ffffffffffffffff82111761130157604052565b67ffffffffffffffff811161130157601f01601f191660200190565b6006546001600160a01b03163303611e1157565b606460405162461bcd60e51b815260206004820152602060248201527f4f776e61626c653a2063616c6c6572206973206e6f7420746865206f776e65726044820152fd5b15611e5c57565b60405162461bcd60e51b815260206004820152601860248201527f4552433732313a20696e76616c696420746f6b656e20494400000000000000006044820152606490fd5b6000908152600260205260409020546001600160a01b0316611ec4811515611e55565b90565b600081815260026020526040902054611eea906001600160a01b03161515611e55565b6000908152600460205260409020546001600160a01b031690565b15611f0c57565b60405162461bcd60e51b815260206004820152602d60248201527f4552433732313a2063616c6c6572206973206e6f7420746f6b656e206f776e6560448201526c1c881bdc88185c1c1c9bdd9959609a1b6064820152608490fd5b90611f8b939291611f7b6119528433612002565b611f868383836120ca565b6122a3565b15611f9257565b60405162461bcd60e51b815280611fab60048201611faf565b0390fd5b60809060208152603260208201527f4552433732313a207472616e7366657220746f206e6f6e20455243373231526560408201527131b2b4bb32b91034b6b83632b6b2b73a32b960711b60608201520190565b906001600160a01b03808061201684611ea1565b16931691838314938415612049575b508315612033575b50505090565b61203f91929350611ec7565b161438808061202d565b909350600052600560205260406000208260005260205260ff604060002054169238612025565b1561207757565b60405162461bcd60e51b815260206004820152602560248201527f4552433732313a207472616e736665722066726f6d20696e636f72726563742060448201526437bbb732b960d91b6064820152608490fd5b906120f2916120d884611ea1565b6001600160a01b0393918416928492909183168414612070565b1691821561093f57816121af575b7fddf252ad1be2c89b69c2b068fc378daa952ba7f163c4a11628f55a4df523b3ef90600090848252600960205284604061213c888286206123c8565b878452600a60205261216986828620946001600160601b0360a01b9585878254161790556109388b611ea1565b87845260046020528084208381541690558584526003602052808420600019815401905581845280842060018154019055878452600260205283209182541617905580a4565b92919060009381855260096020526040852094855495815b8781106121f5575b5050848152600a6020526040902080546001600160a01b03191690559293509091612100565b866122008284611d58565b919054600392831b1c1461221d5750612218906125a2565b6121c7565b91929394959697600019810190811161228f57927fddf252ad1be2c89b69c2b068fc378daa952ba7f163c4a11628f55a4df523b3ef959492828560409661226c9510612276575b5050506125fd565b90869594936121cf565b612287926109046109109286611d58565b388080612264565b634e487b7160e01b85526011600452602485fd5b9293600093909291803b156123bd579484916122fd9660405180948193630a85bd0160e11b9788845233600485015260018060a01b0380921660248501526044840152608060648401528260209b8c976084830190611cb7565b0393165af1849181612379575b50612368575050503d600014612360573d61232481611de1565b906123326040519283611dbf565b81528091833d92013e5b8051918261235d5760405162461bcd60e51b815280611fab60048201611faf565b01fd5b50606061233c565b6001600160e01b0319161492509050565b9091508581813d83116123b6575b6123918183611dbf565b810103126123b257516001600160e01b0319811681036123b257903861230a565b8480fd5b503d612387565b505050915050600190565b908154916801000000000000000083101561130157826109109160016123f095018155611d58565b565b156123f957565b60405162461bcd60e51b815260206004820152601c60248201527f4552433732313a20746f6b656e20616c7265616479206d696e746564000000006044820152606490fd5b6001600160a01b0316801561251957600082815260026020526040902054612472906001600160a01b031615155b156123f2565b6000818152600960205261248983604083206123c8565b828152600a6020908152604080832080546001600160a01b03199081168617909155600086815260029093529120546124cc906001600160a01b0316151561246c565b8282526003602052604082206001815401905583825260026020528260408320918254161790557fddf252ad1be2c89b69c2b068fc378daa952ba7f163c4a11628f55a4df523b3ef8180a4565b606460405162461bcd60e51b815260206004820152602060248201527f4552433732313a206d696e7420746f20746865207a65726f20616464726573736044820152fd5b1561256457565b60405162461bcd60e51b8152602060048201526016602482015275141bdad95b5bdb88191bd95cc81b9bdd08195e1a5cdd60521b6044820152606490fd5b60001981146109905760010190565b156125b857565b60405162461bcd60e51b815260206004820152601d60248201527f4e6f7420746865206f776e6572206f66207468697320506f6b656d6f6e0000006044820152606490fd5b805490811561262757600019918201916126178383611d58565b909182549160031b1b1916905555565b634e487b7160e01b600052603160045260246000fd5b80156126525760ff8111610990576001901b90565b5060019056fea2646970667358221220f80a8d6898cbe0388d025e590c684f4f8de881f756d301898411a4676936ddb064736f6c63430008130033",
  "linkReferences": {},
  "deployedLinkReferences": {}
}