{
  "_format": "hh-sol-artifact-1",
  "contractName": "Token",
  "sourceName": "contracts/Token.sol",
  "abi": [
    {
      "inputs": [],
      "stateMutability": "nonpayable",
      "type": "constructor"
    },
    {
      "anonymous": false,
      "inputs": [
        {
          "indexed": true,
          "internalType": "address",
          "name": "owner",
          "type": "address"
        },
        {
          "indexed": true,
          "internalType": "address",
          "name": "spender",
          "type": "address"
        },
        {
          "indexed": false,
          "internalType": "uint256",
          "name": "value",
          "type": "uint256"
        }
      ],
      "name": "Approval",
      "type": "event"
    },
    {
      "anonymous": false,
      "inputs": [
        {
          "indexed": true,
          "internalType": "address",
          "name": "previousOwner",
          "type": "address"
        },
        {
          "indexed": true,
          "internalType": "address",
          "name": "newOwner",
          "type": "address"
        }
      ],
      "name": "OwnershipTransferred",
      "type": "event"
    },
    {
      "anonymous": false,
      "inputs": [
        {
          "indexed": true,
          "internalType": "address",
          "name": "from",
          "type": "address"
        },
        {
          "indexed": false,
          "internalType": "uint256",
          "name": "amount",
          "type": "uint256"
        }
      ],
      "name": "TokensBurned",
      "type": "event"
    },
    {
      "anonymous": false,
      "inputs": [
        {
          "indexed": true,
          "internalType": "address",
          "name": "to",
          "type": "address"
        },
        {
          "indexed": false,
          "internalType": "uint256",
          "name": "amount",
          "type": "uint256"
        }
      ],
      "name": "TokensMinted",
      "type": "event"
    },
    {
      "anonymous": false,
      "inputs": [
        {
          "indexed": true,
          "internalType": "address",
          "name": "from",
          "type": "address"
        },
        {
          "indexed": true,
          "internalType": "address",
          "name": "to",
          "type": "address"
        },
        {
          "indexed": false,
          "internalType": "uint256",
          "name": "value",
          "type": "uint256"
        }
      ],
      "name": "Transfer",
      "type": "event"
    },
    {
      "inputs": [],
      "name": "BATTLE_REWARD",
      "outputs": [
        {
          "internalType": "uint256",
          "name": "",
          "type": "uint256"
        }
      ],
      "stateMutability": "view",
      "type": "function"
    },
    {
      "inputs": [],
      "name": "POKEMON_COST",
      "outputs": [
        {
          "internalType": "uint256",
          "name": "",
          "type": "uint256"
        }
      ],
      "stateMutability": "view",
      "type": "function"
    },
    {
      "inputs": [
        {
          "internalType": "address",
          "name": "minter",
          "type": "address"
        }
      ],
      "name": "addAuthorizedMinter",
      "outputs": [],
      "stateMutability": "nonpayable",
      "type": "function"
    },
    {
      "inputs": [
        {
          "internalType": "address",
          "name": "owner",
          "type": "address"
        },
        {
          "internalType": "address",
          "name": "spender",
          "type": "address"
        }
      ],
      "name": "allowance",
      "outputs": [
        {
          "internalType": "uint256",
          "name": "",
          "type": "uint256"
        }
      ],
      "stateMutability": "view",
      "type": "function"
    },
    {
      "inputs": [
        {
          "internalType": "address",
          "name": "spender",
          "type": "address"
        },
        {
          "internalType": "uint256",
          "name": "amount",
          "type": "uint256"
        }
      ],
      "name": "approve",
      "outputs": [
        {
          "internalType": "bool",
          "name": "",
          "type": "bool"
        }
      ],
      "stateMutability": "nonpayable",
      "type": "function"
    },
    {
      "inputs": [
        {
          "internalType": "address",
          "name": "",
          "type": "address"
        }
      ],
      "name": "authorizedMinters",
      "outputs": [
        {
          "internalType": "bool",
          "name": "",
          "type": "bool"
        }
      ],
      "stateMutability": "view",
      "type": "function"
    },
    {
      "inputs": [
        {
          "internalType": "address",
          "name": "account",
          "type": "address"
        }
      ],
      "name": "balanceOf",
      "outputs": [
        {
          "internalType": "uint256",
          "name": "",
          "type": "uint256"
        }
      ],
      "stateMutability": "view",
      "type": "function"
    },
    {
      "inputs": [],
      "name": "battleContract",
      "outputs": [
        {
          "internalType": "contract Battle",
          "name": "",
          "type": "address"
        }
      ],
      "stateMutability": "view",
      "type": "function"
    },
    {
      "inputs": [
        {
          "internalType": "address",
          "name": "from",
          "type": "address"
        },
        {
          "internalType": "uint256",
          "name": "amount",
          "type": "uint256"
        }
      ],
      "name": "burn",
      "outputs": [],
      "stateMutability": "nonpayable",
      "type": "function"
    },
    {
      "inputs": [],
      "name": "decimals",
      "outputs": [
        {
          "internalType": "uint8",
          "name": "",
          "type": "uint8"
        }
      ],
      "stateMutability": "view",
      "type": "function"
    },
    {
      "inputs": [
        {
          "internalType": "address",
          "name": "spender",
          "type": "address"
        },
        {
          "internalType": "uint256",
          "name": "subtractedValue",
          "type": "uint256"
        }
      ],
      "name": "decreaseAllowance",
      "outputs": [
        {
          "internalType": "bool",
          "name": "",
          "type": "bool"
        }
      ],
      "stateMutability": "nonpayable",
      "type": "function"
    },
    {
      "inputs": [
        {
          "internalType": "address",
          "name": "spender",
          "type": "address"
        },
        {
          "internalType": "uint256",
          "name": "addedValue",
          "type": "uint256"
        }
      ],
      "name": "increaseAllowance",
      "outputs": [
        {
          "internalType": "bool",
          "name": "",
          "type": "bool"
        }
      ],
      "stateMutability": "nonpayable",
      "type": "function"
    },
    {
      "inputs": [
        {
          "internalType": "address",
          "name": "to",
          "type": "address"
        },
        {
          "internalType": "uint256",
          "name": "amount",
          "type": "uint256"
        }
      ],
      "name": "mint",
      "outputs": [],
      "stateMutability": "nonpayable",
      "type": "function"
    },
    {
      "inputs": [],
      "name": "name",
      "outputs": [
        {
          "internalType": "string",
          "name": "",
          "type": "string"
        }
      ],
      "stateMutability": "view",
      "type": "function"
    },
    {
      "inputs": [],
      "name": "owner",
      "outputs": [
        {
          "internalType": "address",
          "name": "",
          "type": "address"
        }
      ],
      "stateMutability": "view",
      "type": "function"
    },
    {
      "inputs": [],
      "name": "purchasePokemon",
      "outputs": [],
      "stateMutability": "nonpayable",
      "type": "function"
    },
    {
      "inputs": [
        {
          "internalType": "address",
          "name": "minter",
          "type": "address"
        }
      ],
      "name": "removeAuthorizedMinter",
      "outputs": [],
      "stateMutability": "nonpayable",
      "type": "function"
    },
    {
      "inputs": [],
      "name": "renounceOwnership",
      "outputs": [],
      "stateMutability": "nonpayable",
      "type": "function"
    },
    {
      "inputs": [
        {
          "internalType": "address",
          "name": "winner",
          "type": "address"
        }
      ],
      "name": "rewardBattleWinner",
      "outputs": [],
      "stateMutability": "nonpayable",
      "type": "function"
    },
    {
      "inputs": [
        {
          "internalType": "address",
          "name": "_battleContract",
          "type": "address"
        }
      ],
      "name": "setBattleContract",
      "outputs": [],
      "stateMutability": "nonpayable",
      "type": "function"
    },
    {
      "inputs": [],
      "name": "symbol",
      "outputs": [
        {
          "internalType": "string",
          "name": "",
          "type": "string"
        }
      ],
      "stateMutability": "view",
      "type": "function"
    },
    {
      "inputs": [],
      "name": "totalSupply",
      "outputs": [
        {
          "internalType": "uint256",
          "name": "",
          "type": "uint256"
        }
      ],
      "stateMutability": "view",
      "type": "function"
    },
    {
      "inputs": [
        {
          "internalType": "address",
          "name": "to",
          "type": "address"
        },
        {
          "internalType": "uint256",
          "name": "amount",
          "type": "uint256"
        }
      ],
      "name": "transfer",
      "outputs": [
        {
          "internalType": "bool",
          "name": "",
          "type": "bool"
        }
      ],
      "stateMutability": "nonpayable",
      "type": "function"
    },
    {
      "inputs": [
        {
          "internalType": "address",
          "name": "from",
          "type": "address"
        },
        {
          "internalType": "address",
          "name": "to",
          "type": "address"
        },
        {
          "internalType": "uint256",
          "name": "amount",
          "type": "uint256"
        }
      ],
      "name": "transferFrom",
      "outputs": [
        {
          "internalType": "bool",
          "name": "",
          "type": "bool"
        }
      ],
      "stateMutability": "nonpayable",
      "type": "function"
    },
    {
      "inputs": [
        {
          "internalType": "address",
          "name": "newOwner",
          "type": "address"
        }
      ],
      "name": "transferOwnership",
      "outputs": [],
      "stateMutability": "nonpayable",
      "type": "function"
    }
  ],
  "bytecode": "0x6080346200041c576040906001600160401b03818301818111838210176200031c578352601482526020907f506f6b656d6f6e20426174746c6520546f6b656e00000000000000000000000082840152835192848401848110838211176200031c5785526003918285526214109560ea1b848601528151928184116200031c578054936001938486811c9616801562000411575b87871014620003fb578190601f96878111620003a5575b5087908783116001146200033e5760009262000332575b505060001982841b1c191690841b1781555b85519182116200031c5760049586548481811c9116801562000311575b87821014620002fc57858111620002b1575b50859085841160011462000246579383949184926000956200023a575b50501b92600019911b1c19161783555b60058054336001600160a01b03198216811790925585519291906001600160a01b03167f8be0079c531659141344cd1fd0a4f28419497f9722a3daafe3b4186f6b6457e0600080a33315620001fd57505060025469d3c21bcecceda100000092838201809211620001e857506000917fddf252ad1be2c89b69c2b068fc378daa952ba7f163c4a11628f55a4df523b3ef9160025533835282815284832084815401905584519384523393a3516111ab9081620004228239f35b601190634e487b7160e01b6000525260246000fd5b6064928462461bcd60e51b845283015260248201527f45524332303a206d696e7420746f20746865207a65726f2061646472657373006044820152fd5b0151935038806200011f565b9190601f198416928860005284886000209460005b8a898383106200029957505050106200027e575b50505050811b0183556200012f565b01519060f884600019921b161c19169055388080806200026f565b8686015189559097019694850194889350016200025b565b87600052866000208680860160051c820192898710620002f2575b0160051c019085905b828110620002e557505062000102565b60008155018590620002d5565b92508192620002cc565b602288634e487b7160e01b6000525260246000fd5b90607f1690620000f0565b634e487b7160e01b600052604160045260246000fd5b015190503880620000c1565b90869350601f1983169185600052896000209260005b8b8282106200038e575050841162000375575b505050811b018155620000d3565b015160001983861b60f8161c1916905538808062000367565b8385015186558a9790950194938401930162000354565b90915083600052876000208780850160051c8201928a8610620003f1575b918891869594930160051c01915b828110620003e1575050620000aa565b60008155859450889101620003d1565b92508192620003c3565b634e487b7160e01b600052602260045260246000fd5b95607f169562000093565b600080fdfe608060408181526004918236101561001657600080fd5b600092833560e01c91826301186cf314610cd65750816306fdde0314610bfc578163095ea7b314610bd25781630db6dff714610b8d57816318160ddd14610b6e57816323b872dd14610aa4578163313ce56714610a885781633950935114610a3857816340c10f1914610912578163423b1ca3146108e9578163475ae039146108a95781634ca28b4f1461088d5781635f710f5c1461084a57816370a0823114610813578163715018a6146107b65781638da5cb5b1461078d57816395d89b411461066e5781639dc29fac146104e7578163a457c2d71461043f578163a9059cbb1461040e578163aa2fe91b146103d0578163c581b4421461026f578163dd62ed3e14610226578163f2fde38b14610156575063fa8a5b1c1461013857600080fd5b346101525781600319360112610152576020905160648152f35b5080fd5b90503461022257602036600319011261022257610171610e02565b9061017a610e7c565b6001600160a01b039182169283156101d0575050600554826bffffffffffffffffffffffff60a01b821617600555167f8be0079c531659141344cd1fd0a4f28419497f9722a3daafe3b4186f6b6457e08380a380f35b906020608492519162461bcd60e51b8352820152602660248201527f4f776e61626c653a206e6577206f776e657220697320746865207a65726f206160448201526564647265737360d01b6064820152fd5b8280fd5b50503461015257806003193601126101525780602092610244610e02565b61024c610e1d565b6001600160a01b0391821683526001865283832091168252845220549051908152f35b9190503461022257826003193601126102225733835260209083825268056bc75e2d631000009283828620541061038f5733156103445733855284835281852054908482106102f65750916000805160206111568339815191529185949333865285835268056bc75e2d630fffff198091018287205560025401600255519283523392a380f35b825162461bcd60e51b8152908101849052602260248201527f45524332303a206275726e20616d6f756e7420657863656564732062616c616e604482015261636560f01b6064820152608490fd5b82608492519162461bcd60e51b8352820152602160248201527f45524332303a206275726e2066726f6d20746865207a65726f206164647265736044820152607360f81b6064820152fd5b82606492519162461bcd60e51b8352820152601a60248201527f496e73756666696369656e7420746f6b656e2062616c616e63650000000000006044820152fd5b5050346101525760203660031901126101525760209160ff9082906001600160a01b036103fb610e02565b1681526007855220541690519015158152f35b50503461015257806003193601126101525760209061043861042e610e02565b6024359033610ef7565b5160018152f35b905082346104e457826003193601126104e45761045a610e02565b918360243592338152600160205281812060018060a01b0386168252602052205490828210610493576020856104388585038733611053565b608490602086519162461bcd60e51b8352820152602560248201527f45524332303a2064656372656173656420616c6c6f77616e63652062656c6f77604482015264207a65726f60d81b6064820152fd5b80fd5b91905034610222578060031936011261022257610502610e02565b90602435903385526020926007845260ff828720541615610632576001600160a01b03169384156105e7578486528584528186205490838210610599575090827ffd38818f5291bf0bb3a2a48aadc06ba8757865d1dabd804585338aab3009dcb6949392868852878552038187205581600254036002558585600080516020611156833981519152858451868152a351908152a280f35b825162461bcd60e51b8152908101859052602260248201527f45524332303a206275726e20616d6f756e7420657863656564732062616c616e604482015261636560f01b6064820152608490fd5b83608492519162461bcd60e51b8352820152602160248201527f45524332303a206275726e2066726f6d20746865207a65726f206164647265736044820152607360f81b6064820152fd5b815162461bcd60e51b815280860185905260166024820152752737ba1030baba3437b934bd32b2103a3790313ab93760511b6044820152606490fd5b838334610152578160031936011261015257805190828454600181811c90808316928315610783575b60209384841081146107705783885290811561075457506001146106ff575b505050829003601f01601f191682019267ffffffffffffffff8411838510176106ec57508291826106e8925282610e33565b0390f35b634e487b7160e01b815260418552602490fd5b8787529192508591837f8a35acfbc15ff81a39ae7d344fd709f28e8600b4aa8c65c6b64bfe7fe36bd19b5b83851061074057505050508301018580806106b6565b80548886018301529301928490820161072a565b60ff1916878501525050151560051b84010190508580806106b6565b634e487b7160e01b895260228a52602489fd5b91607f1691610697565b50503461015257816003193601126101525760055490516001600160a01b039091168152602090f35b83346104e457806003193601126104e4576107cf610e7c565b600580546001600160a01b0319811690915581906001600160a01b03167f8be0079c531659141344cd1fd0a4f28419497f9722a3daafe3b4186f6b6457e08280a380f35b5050346101525760203660031901126101525760209181906001600160a01b0361083b610e02565b16815280845220549051908152f35b50503461015257602036600319011261015257610865610e02565b61086d610e7c565b6001600160a01b0316825260076020528120805460ff1916600117905580f35b50503461015257816003193601126101525760209051600a8152f35b505034610152576020366003190112610152576108c4610e02565b6108cc610e7c565b6001600160a01b0316825260076020528120805460ff1916905580f35b50503461015257816003193601126101525760065490516001600160a01b039091168152602090f35b9190503461022257806003193601126102225761092d610e02565b90602435903385526020926007845260ff8287205416156109fc576001600160a01b03169384156109bb5750907f3f2c9d57c068687834f0de942a9babb9e5acab57d516d3480a3c16ee165a4273929161098982600254610ed4565b6002558486528583528086208281540190558486600080516020611156833981519152858451868152a351908152a280f35b83606492519162461bcd60e51b8352820152601f60248201527f45524332303a206d696e7420746f20746865207a65726f2061646472657373006044820152fd5b815162461bcd60e51b81528086018590526016602482015275139bdd08185d5d1a1bdc9a5e9959081d1bc81b5a5b9d60521b6044820152606490fd5b505034610152578060031936011261015257610438602092610a81610a5b610e02565b338352600186528483206001600160a01b03821684528652918490205460243590610ed4565b9033611053565b5050346101525781600319360112610152576020905160128152f35b8391503461015257606036600319011261015257610ac0610e02565b610ac8610e1d565b91846044359460018060a01b038416815260016020528181203382526020522054906000198203610b02575b602086610438878787610ef7565b848210610b2b5750918391610b206020969561043895033383611053565b919394819350610af4565b606490602087519162461bcd60e51b8352820152601d60248201527f45524332303a20696e73756666696369656e7420616c6c6f77616e63650000006044820152fd5b5050346101525781600319360112610152576020906002549051908152f35b83346104e45760203660031901126104e457610ba7610e02565b610baf610e7c565b60018060a01b03166bffffffffffffffffffffffff60a01b600654161760065580f35b505034610152578060031936011261015257602090610438610bf2610e02565b6024359033611053565b83833461015257816003193601126101525780519082600354600181811c90808316928315610ccc575b6020938484108114610770578388529081156107545750600114610c7657505050829003601f01601f191682019267ffffffffffffffff8411838510176106ec57508291826106e8925282610e33565b600387529192508591837fc2575a0e9e593c00f959f8c92f12db2869c3395a3b0502d05e2516446f71f85b5b838510610cb857505050508301018580806106b6565b805488860183015293019284908201610ca2565b91607f1691610c26565b90915034610dfe576020366003190112610dfe57610cf2610e02565b6006546001600160a01b03929083163303610dad575016918215610d6a57600254678ac7230489e8000092838201809211610d57575084926000805160206111568339815191529260209260025585855284835280852082815401905551908152a380f35b634e487b7160e01b865260119052602485fd5b906020606492519162461bcd60e51b8352820152601f60248201527f45524332303a206d696e7420746f20746865207a65726f2061646472657373006044820152fd5b62461bcd60e51b8152602084820152602760248201527f4f6e6c7920626174746c6520636f6e74726163742063616e207265776172642060448201526677696e6e65727360c81b6064820152608490fd5b8380fd5b600435906001600160a01b0382168203610e1857565b600080fd5b602435906001600160a01b0382168203610e1857565b6020808252825181830181905290939260005b828110610e6857505060409293506000838284010152601f8019910116010190565b818101860151848201604001528501610e46565b6005546001600160a01b03163303610e9057565b606460405162461bcd60e51b815260206004820152602060248201527f4f776e61626c653a2063616c6c6572206973206e6f7420746865206f776e65726044820152fd5b91908201809211610ee157565b634e487b7160e01b600052601160045260246000fd5b6001600160a01b039081169182156110005716918215610faf57600082815280602052604081205491808310610f5b5760408282600080516020611156833981519152958760209652828652038282205586815220818154019055604051908152a3565b60405162461bcd60e51b815260206004820152602660248201527f45524332303a207472616e7366657220616d6f756e7420657863656564732062604482015265616c616e636560d01b6064820152608490fd5b60405162461bcd60e51b815260206004820152602360248201527f45524332303a207472616e7366657220746f20746865207a65726f206164647260448201526265737360e81b6064820152608490fd5b60405162461bcd60e51b815260206004820152602560248201527f45524332303a207472616e736665722066726f6d20746865207a65726f206164604482015264647265737360d81b6064820152608490fd5b6001600160a01b0390811691821561110457169182156110b45760207f8c5be1e5ebec7d5bd14f71427d1e84f3dd0314c0f7b2291e5b200ac8c7c3b925918360005260018252604060002085600052825280604060002055604051908152a3565b60405162461bcd60e51b815260206004820152602260248201527f45524332303a20617070726f766520746f20746865207a65726f206164647265604482015261737360f01b6064820152608490fd5b60405162461bcd60e51b8152602060048201526024808201527f45524332303a20617070726f76652066726f6d20746865207a65726f206164646044820152637265737360e01b6064820152608490fdfeddf252ad1be2c89b69c2b068fc378daa952ba7f163c4a11628f55a4df523b3efa26469706673582212208576eeda4b8ef580ab35cbb226dd6e32d9ebe4804e6c1cdc3aa5ee780183789064736f6c63430008130033",
  "linkReferences": {},
  "deployedLinkReferences": {}
}